:1000000012C02CC02BC02AC029C028C027C026C0BF
:1000100025C024C023C022C021C020C01FC01EC0D4
:100020001DC01CC01BC011241FBECFE5D4E0DEBF25
:10003000CDBF10E0A0E6B0E0E6EEF0E002C0059033
:100040000D92A836B107D9F710E0A8E6B0E001C0DC
:100050001D92A836B107E1F702D044C0D1CFCF93AB
:10006000DF93CDB7DEB728970FB6F894DEBF0FBE8B
:10007000CDBFDE011196E0E6F0E088E001900D9240
:100080008150E1F78FEF87BB40E050E0DE01119631
:10009000BE01685F7F4F10C0FD01E40FF51F808136
:1000A00088BB28EE33E088EC90E00197F1F721500F
:1000B0003040C9F74E5F5F4F483051056CF3FB018C
:1000C000808188BB28EE33E088EC90E00197F1F75F
:1000D00021503040C9F73297EC17FD0789F740E00F
:0600E00050E0EACFFFCF63
:0800E600010204081020408013
:00000001FF
