:1000000012C02CC02BC02AC029C028C027C026C0BF
:1000100025C024C023C022C021C020C01FC01EC0D4
:100020001DC01CC01BC011241FBECFE5D4E0DEBF25
:10003000CDBF10E0A0E6B0E0EEE0F3E002C0059036
:100040000D92AA37B107D9F710E0AAE7B0E001C0D6
:100050001D92AF37B107E1F710D158C1D1CF80EF72
:1000600088BBE0E0F0E081E090E00E2E02C0880F57
:10007000991F0A94E2F7809588BB44E050E086B36C
:1000800090E0042E02C0959587950A94E2F780FDD2
:100090001FC009C024EF31E088EC90E00197F1F730
:1000A00021503040C9F786B390E0042E02C09595E8
:1000B00087950A94E2F780FFEDCFEE0FFF1FEE0F5A
:1000C000FF1FE40FF51FE45AFF4F808190E0089571
:1000D0004F5F5F4F4830510591F63196E430F1059E
:1000E00009F0C1CF8FE390E008950F931F938C0127
:1000F0006AE070E0E4D020E730E0F901E60FF11D9E
:10010000808185BBC8016AE070E0D9D0280F311D1D
:10011000F901808182BB1F910F9108958F3209F4FC
:1001200073C0803340F48B3211F18D3279F18A3211
:1001300009F080C04CC08D3389F0833409F07AC057
:1001400010927B0010927A0010927D0010927C0039
:100150008DE380937E0080E090E054C080917C002D
:1001600090917D0010927D0010927C0044C080919F
:100170007C0090917D0020917A0030917B0010925C
:100180007D0010927C00820F931F35C020917A0071
:1001900030917B0080917C0090917D00281B390B71
:1001A00030937B0020937A0010927D0010927C00A7
:1001B00037FF08C088279927821B930B90937B00F9
:1001C00080937A0080917A0090917B0014C02091F6
:1001D0007C0030917D0080917A0090917B0010929C
:1001E0007D0010927C00AC01249FC001259F900DE2
:1001F000349F900D112464E670E061D090937B00F1
:1002000080937A0072DF089560917C0070917D0088
:1002100080917A0090917B0052D0CB0110927D00AA
:1002200010927C0064E670E04AD090937B0080934B
:100230007A005BDF089583E471DF8FE087BB8FEF87
:1002400084BB81BB089520917C0030917D00A90181
:1002500063E0440F551F6A95E1F7220F331F240F07
:10026000351F280F311DC90164E670E028D0909336
:100270007D0080937C0039DF08951F93DCDFEFDE83
:10028000182F8F33E1F380538A3010F4DCDFF7CF7F
:10029000133411F483E411C080917E008D3321F07A
:1002A0003DDF10937E00EBCF10937E0080917C00A9
:1002B00090917D00892B19F38DE330DFE0CF97FB20
:1002C000092E07260AD077FD04D00CD006D00020D6
:1002D0001AF4709561957F4F0895F6F79095819582
:1002E0009F4F0895AA1BBB1B51E107C0AA1FBB1F4C
:1002F000A617B70710F0A61BB70B881F991F5A95B2
:0E030000A9F780959095BC01CD010895FFCF1F
:10030E003132332B3435362D3738392A43303D2FA1
:0A031E00C0F9A4B0999282F8809013
:00000001FF
