:1000000012C02CC02BC02AC029C028C027C026C0BF
:1000100025C024C023C022C021C020C01FC01EC0D4
:100020001DC01CC01BC011241FBECFE5D4E0DEBF25
:10003000CDBF10E0A0E6B0E0EEEEF0E002C005902B
:100040000D92AA36B107D9F710E0AAE6B0E001C0D8
:100050001D92AA36B107E1F702D048C0D1CF0F9365
:100060001F93CF93DF93CDB7DEB72A970FB6F894DF
:10007000DEBF0FBECDBFDE011196E0E6F0E08AE004
:1000800001900D928150E1F78FEF81BB17BA8E017D
:100090000F5F1F4FDE011B96BE016E5F7F4FAE01EB
:1000A000445F5F4FB09911C0F801808182BB28EE98
:1000B00033E088EC90E00197F1F721503040C9F728
:1000C0003296EA17FB0771F3F0CFFB01808182BB08
:1000D00028EE33E088EC90E00197F1F721503040B2
:0E00E000C9F73296E417F507E9F2F0CFFFCF2B
:0A00EE00C0F9A4B0999282F8809046
:00000001FF
