:1000000012C02CC02BC02AC029C028C027C026C0BF
:1000100025C024C023C022C021C020C01FC01EC0D4
:100020001DC01CC01BC011241FBECFE5D4E0DEBF25
:10003000CDBF10E0A0E6B0E0E2E4F1E002C0059040
:100040000D92A036B107D9F710E0A0E6B0E001C0EC
:100050001D92A036B107E1F702D072C0D1CF8FEF69
:1000600081BB80EC82BB28EE33E088EC90E0019706
:10007000F1F721503040C9F784EA82BB28EE33E023
:1000800088EC90E00197F1F721503040C9F789E9F9
:1000900082BB28EE33E088EC90E00197F1F7215025
:1000A0003040C9F782E882BB28EE33E088EC90E06C
:1000B0000197F1F721503040C9F780E882BB28EE64
:1000C00033E088EC90E00197F1F721503040C9F718
:1000D00080E982BB28EE33E088EC90E00197F1F7ED
:1000E00021503040C9F788EF82BB28EE33E088EC1E
:1000F00090E00197F1F721503040C9F782E982BBC7
:1001000028EE33E088EC90E00197F1F72150304081
:10011000C9F780EB82BB28EE33E088EC90E00197D2
:10012000F1F721503040C9F789EF82BB28EE33E068
:1001300088EC90E00197F1F721503040C9F791CF5A
:02014000FFCFEF
:00000001FF
